:100000000C942A000C9477010C94A7010C944700DF
:100010000C9447000C9447000C9447000C94470044
:100020000C9447000C9447000C9447000C94CB01AF
:100030000C9447000C948A020C9447000C944700DF
:100040000C9447000C9447000C9447000C94470014
:100050000C94470011241FBECFE5D4E0DEBFCDBF16
:1000600010E0A0E6B0E0E0E1F6E002C005900D92FD
:10007000A236B107D9F720E0A2E6B0E001C01D9298
:10008000A63EB207E1F70E9469020C9406030C94A5
:10009000000082B3806882BB00C082B38F7782BBCE
:1000A0000895CF93C82F662321F082B3806282BB6C
:1000B00003C082B38F7D82BB82B38F7B82BB87B349
:1000C000806187BB87B3806287BB87B3806487BB4F
:1000D00087B3806887BB88B38F7788BB88B38F7BF3
:1000E00088BB88B38F7D88BB88B38F7E88BBCC23C9
:1000F0001CF488B3806888BBC6FF03C088B38064E3
:1001000088BBC5FF03C088B3806288BBC4FF03C03F
:1001100088B3806188BB0E94490088B38F7788BB11
:1001200088B38F7B88BB88B38F7D88BB88B38F7E75
:1001300088BBC3FF03C088B3806888BBC2FF03C00D
:1001400088B3806488BBC1FF03C088B3806288BB6A
:10015000C0FF03C088B3806188BB0E94490088B398
:10016000806188BB88B3806288BB88B3806488BBA9
:1001700088B3806888BBCF910895882321F082B32B
:10018000806282BB03C082B38F7D82BB82B38064F6
:1001900082BB87B38F7E87BB87B38F7D87BB87B3D7
:1001A0008F7B87BB87B38F7787BB82B3806882BB27
:1001B00000C0B49902C080E001C080E1B5998062BE
:1001C000B6998064B799806892B39F7792BB00C05C
:1001D00092B3906892BB00C0B4998160B599826077
:1001E000B6998460B799886092B39F7792BB08955F
:1001F00080E00E94BD008823DCF383E090E001975B
:10020000F1F780E00E94BD000895CF93C82F0E94AF
:10021000F80060E08C2F0E945100CF910895CF9399
:10022000C82F0E94F80061E08C2F0E945100CF91EE
:10023000089581E00E94050108951F93CF93DF93F5
:10024000182F81B3806281BB81B3806481BB81B38D
:10025000806881BB87B3806187BB87B3806287BBBF
:1002600087B3806487BB87B3806887BB80E393E7ED
:100270000197F1F788B3806288BB88B3806188BB3F
:100280000E94490080EF93E20197F1F70E94490034
:10029000C5E7D0E0CE010197F1F70E944900CE01F9
:1002A0000197F1F788B38F7E88BB0E9449002197A0
:1002B000F1F788E20E94050188E00E9405010E9492
:1002C000190186E00E940501812F0E940501DF913E
:1002D000CF911F9108952FEF8FE392E0215080403E
:1002E0009040E1F700C0000080EC8ABF08951F92A3
:1002F0000F920FB60F9211242F933F934F935F935A
:100300006F937F938F939F93AF93BF93EF93FF93DD
:1003100087B3886087BB03C08BB38D7F8BBB829B09
:10032000FBCF8BB382608BBB0E946B01FF91EF917F
:10033000BF91AF919F918F917F916F915F914F91FD
:100340003F912F910F900FBE0F901F9018951F9205
:100350000F920FB60F9211242F933F934F935F93F9
:100360006F937F938F939F93AF93BF93EF93FF937D
:100370000E946B01FF91EF91BF91AF919F918F917F
:100380007F916F915F914F913F912F910F900FBE91
:100390000F901F9018951F920F920FB60F92112475
:1003A0002F933F934F935F936F937F938F939F937D
:1003B000AF93BF93EF93FF938BB38E7F8BBBE09193
:1003C0006200F09163008CB1EA59FF4F8083E091A5
:1003D0006200F0916300EA59FF4F8081813409F097
:1003E0003FC087B3816087BB2FEF8FEB96E0215032
:1003F00080409040E1F700C0000087B38E7F87BB4C
:100400002FEF8FE392E0215080409040E1F700C051
:10041000000087B3816087BB2FEF8FE392E021500C
:1004200080409040E1F700C0000087B38E7F87BB1B
:100430002FEF8FE392E0215080409040E1F700C021
:10044000000087B3816087BB2FEF8FEB96E02150D0
:1004500080409040E1F700C0000087B38E7F87BBEB
:100460000E941901E0916200F0916300EA59FF4F88
:1004700080810E940F018091640090916500019637
:100480009093650080936400809162009091630076
:100490000196909363008093620080916200909136
:1004A00063008038910520F0109263001092620082
:1004B000FF91EF91BF91AF919F918F917F916F913C
:1004C0005F914F913F912F910F900FBE0F901F9012
:1004D000189580E181BB81E28FBDCAE0CEBD81E08D
:1004E00090E099BD88BD8CE00E941D010E94190119
:1004F0008FEF8ABB8BBBC5BF80EC8BBF40E060E851
:1005000075E280E090E00E949C02789487B3877F38
:1005100087BBFCCF1F920F920FB60F9211248F93BF
:100520008BB38D7F8BBB81E0809360008F910F90A8
:100530000FBE0F901F901895442329F02BB1226015
:100540002BB9A8E001C0A0E1B0E09B01AC010E9482
:10055000EC029B01AC0160E070E880E790E00E9453
:10056000CA02BA01A9014150510961097109DB01AF
:10057000CA0188279F70AA27BB27892F9A2FAB2FE4
:10058000BB2780BD49B98AB1886D8AB980B58F779C
:1005900080BD0895A1E21A2EAA1BBB1BFD010DC050
:1005A000AA1FBB1FEE1FFF1FA217B307E407F50723
:1005B00020F0A21BB30BE40BF50B661F771F881FFF
:1005C000991F1A9469F760957095809590959B0195
:1005D000AC01BD01CF0108950E94F702A59F900DC7
:1005E000B49F900DA49F800D911D11240895A29F8A
:1005F000B001B39FC001A39F700D811D1124911DF7
:10060000B29F700D811D1124911D0895F894FFCFA4
:020610000100E7
:00000001FF
