:100000000C942A000C9434000C9434000C943400AA
:100010000C9434000C9434000C9434000C94340090
:100020000C9434000C9434000C9434000C9436007E
:100030000C9434000C9434000C9434000C94340070
:100040000C9434000C9434000C9434000C94340060
:100050000C94340011241FBECFE5D4E0DEBFCDBF29
:100060000E9457000C9462000C9400001F920F92A3
:100070000FB60F9211248F938BB381608BBB8F913E
:100080000F900FBE0F901F9018955F9BFECF8BB304
:1000900081608BBB80E008951BB828E92AB926E06F
:1000A00020BD89B990BD8BB384608BBB08958FEF61
:1000B0008ABB1BBA83E090E00E944C0078940E94B7
:0800C0004500FDCFF894FFCFCD
:00000001FF
