:100000000C942A000C9434000C9434000C943400AA
:100010000C9434000C9434000C9434000C94340090
:100020000C9434000C9434000C9434000C9436007E
:100030000C9434000C9434000C9434000C94340070
:100040000C9434000C9434000C9434000C94340060
:100050000C94340011241FBECFE5D4E0DEBFCDBF29
:100060000E944D000C9455000C9400001F920F92BA
:100070000FB60F9211248F9381E08BBB8F910F905D
:100080000FBE0F901F90189592E09BB990E99AB916
:1000900096E090BD89B980BD08958FEF8ABB8BBB78
:0E00A0008FE590E00E944400FFCFF894FFCF60
:00000001FF
